:020000040800F2
:1000000000000220FD0C00085D0D00085D0D0008D9
:100010005D0D00085D0D00085D0D0008000000008A
:100020000000000000000000000000009D25000806
:100030005D0D00080000000019270008692700086E
:100040005D0D00085D0D00085D0D00085D0D0008E8
:100050005D0D00085D0D00085D0D00085D0D0008D8
:100060005D0D00085D0D00085D0D00085D0D0008C8
:100070005D0D00085D0D00085D0D00085D0D0008B8
:100080005D0D00085D0D00085D0D00085D0D0008A8
:100090005D0D00085D0D00085D0D00085D0D000898
:1000A0005D0D00085D0D00085D0D00085D0D000888
:1000B0009D0C0008610C00085D0D00085D0D000836
:1000C0005D0D00085D0D00085D0D00085D0D000868
:1000D0005D0D00085D0D00085D0D00085D0D000858
:1000E0005D0D00085D0D00085D0D00085D0D000848
:1000F0005D0D00085D0D00085D0D00085D0D000838
:100100005D0D00085D0D00085D0D00085D0D000827
:100110005D0D00085D0D00085D0D00085D0D000817
:100120005D0D0008050900088D0500081D06000882
:100130005D0D00085D0D00085D0D00085D0D0008F7
:100140005D0D00085D0D00085D0D00085D0D0008E7
:100150005D0D00088D0900085D0D00085D0D0008AB
:100160005D0D00085D0D00085D0D00085D0D0008C7
:100170005D0D00085D0D00085D0D00085D0D0008B7
:080180005D0D00085D0D000893
:1001880010B5054C237833B9044B13B10448AFF3C9
:1001980000800123237010BD5804002000000000D7
:1001A800AC5A000808B5064B1BB106480649AFF320
:1001B80000800648036813B1054B03B1984708BD92
:1001C80000000000AC5A00085C040020580400201D
:1001D80000000000844641EA000313F003036DD1D8
:1001E800403A41D351F8043B40F8043B51F8043BF2
:1001F80040F8043B51F8043B40F8043B51F8043BF9
:1002080040F8043B51F8043B40F8043B51F8043BE8
:1002180040F8043B51F8043B40F8043B51F8043BD8
:1002280040F8043B51F8043B40F8043B51F8043BC8
:1002380040F8043B51F8043B40F8043B51F8043BB8
:1002480040F8043B51F8043B40F8043B51F8043BA8
:1002580040F8043B51F8043B40F8043B51F8043B98
:1002680040F8043B403ABDD2303211D351F8043B38
:1002780040F8043B51F8043B40F8043B51F8043B78
:1002880040F8043B51F8043B40F8043B103AEDD2E7
:100298000C3205D351F8043B40F8043B043AF9D238
:1002A800043208D0D2071CBF11F8013B00F8013B0B
:1002B80001D30B8803806046704700BF082A13D318
:1002C8008B078DD010F003038AD0C3F10403D21A30
:1002D800DB071CBF11F8013B00F8013B80D331F864
:1002E800023B20F8023B7BE7043AD9D3013A11F8E4
:1002F800013B00F8013BF9D20B7803704B7843704F
:100308008B7883706046704780B598B000AF012045
:10031800012104F081FB0120012104F07DFB012073
:10032800012104F079FB8023BB65022387F85C3048
:10033800002387F85E30032387F85D30022387F8AF
:100348005F3007F158038748194604F07DF82023E9
:10035800BB65022387F85C30002387F85E300323EF
:1003680087F85D30022387F85F3007F158037D482E
:10037800194604F069F84023BB65022387F85C300E
:10038800012387F85E30032387F85D30002387F860
:100398005F3007F158037348194604F055F871485F
:1003A8000621052204F066F96E480721052204F0AB
:1003B80061F96C480521052204F05CF91023BB653E
:1003C800012387F85C30002387F85E30032387F821
:1003D8005D30012387F85F3007F1580361481946FB
:1003E80004F032F85F4B5F4A128B92B242F010026F
:1003F80092B21A834FF48050012104F045FB002388
:10040800A7F844304FF48273A7F846300023A7F8C2
:1004180048300023A7F84A300023A7F84C304FF49F
:100428004073A7F84E300823A7F850300023A7F8E8
:10043800523007F144034C48194604F05DFB4A4822
:10044800012104F04BFC4FF48000012104F0E4FA90
:10045800464803F04DF8464803F04AF800BF4348C1
:1004680003F056FC0346002BF9D100BF404803F0C7
:100478004FFC0346002BF9D107F10803184603F097
:1004880011FB0023BB624FF480633B620023FB62D5
:10049800384BFB6000233B6400237B620023FB6135
:1004A8004FF400333B634FF0C063BB6040237B6174
:1004B800314B3B614FF4FA63BB6107F108032B48EA
:1004C800194603F02BF94FF0C063BB6000237B6132
:1004D8002A4B3B614FF4FA63BB6107F108032448D8
:1004E800194603F01BF921481021012203F08EFC64
:1004F8001F481021012203F089FC1B48022104F047
:10050800EBFC1948012104F0E7FC3B233B7107236E
:100518007B710123BB710123FB713B1D184602F05F
:100528006DFF3A233B7107237B710123BB710123C4
:10053800FB713B1D184602F061FF0B4802210122A6
:1005480004F00EFC08480121012204F009FC0120F6
:100558000021032201F0CCFB0246094B1A606037E8
:10056800BD4680BD00000240003001405864024092
:10057800406402400C300140C0390120EC310120B8
:100588007404002080B582B000AF00237B601B4854
:100598001B4903F0F1FC0346002B24D017481849E7
:1005A80003F0A6FE00BF1748802104F037FC03467D
:1005B800012BF8D0144B144A128B92B242F010025D
:1005C80092B21A830D48002103F0A2FA02F070F8E3
:1005D8000E4B1A683B1D104600211A46002301F0F5
:1005E80079FC02F075F87B68002B03D0084B4FF0BC
:1005F80080521A600837BD4680BD00BF4064024083
:1006080000802010003001400000024074040020E7
:1006180004ED00E080B582B000AF00237B601B488A
:100628001B4903F0A9FC0346002B24D0174818499E
:1006380003F05EFE00BF1748802104F0EFFB03467D
:10064800012BF8D0144B144A128B92B242F01002CC
:1006580092B21A831148002103F05AFA02F028F8DE
:100668000F4B1A683B1D104600211A46002301F063
:1006780031FC02F02DF87B68002B03D0094B4FF0BA
:1006880080521A600837BD4680BD00BF58640240DA
:100698000080001800300140000002404064024021
:1006A8007404002004ED00E080B596B000AF20206F
:1006B800012104F0E9F90420012104F0ADF9042036
:1006C800012104F0A9F94020012104F0A5F9C02373
:1006D8003B65022387F85430032387F855300023FD
:1006E80087F85630012387F8573007F150037A48C6
:1006F800194603F0A9FE4FF480733B65012387F880
:100708005430002387F85630032387F855300123E7
:1007180087F8573007F150037048194603F094FEE4
:100728006E4B6E4A128B92B242F4807292B21A8366
:1007380069480621082203F09DFF6748072108221F
:1007480003F098FF4FF416433B640023A7F84430A6
:100758000023A7F846300023A7F848300023A7F85D
:100768004C300C23A7F84A3007F140035C4819467F
:1007780004F0ECFB5A4840F22551012204F006FE31
:10078800472387F83C30062387F83D30012387F854
:100798003E30012387F83F3007F13C03184602F04A
:1007A8002DFE4F48012104F037FD4FF48000012150
:1007B80004F032F94B4802F09BFE4B4802F098FED9
:1007C80000BF484803F0A4FA0346002BF9D100BF44
:1007D800454803F09DFA0346002BF9D13B461846DD
:1007E80003F060F900233B624FF48063BB61002390
:1007F8007B623E4B7B600023BB630023FB610023CD
:100808007B614FF40033BB624FF020633B604023B1
:10081800FB60374BBB604FF4FA633B613B463148A2
:10082800194602F07BFF4FF020633B600023FB601A
:10083800304BBB604FF4FA633B613B462A4819468C
:1008480002F06CFF27481021012203F0DFFA264846
:100858001021012203F0DAFA2148802104F054FE25
:100868001F48202104F050FE452387F83C30072319
:1008780087F83D30012387F83E30012387F83F3061
:1008880007F13C03184602F0B9FD392387F83C30DC
:10089800072387F83D30012387F83E30012387F886
:1008A8003F3007F13C03184602F0A8FD0C488021B0
:1008B800012204F005FD0A484021012204F000FD50
:1008C80001200021032201F013FA02460A4B1A60A4
:1008D8005837BD4680BD00BF0008024000180240DE
:1008E80000140140A064024028640240041401403E
:1008F800C0390120EC3101207804002080B582B095
:1009080000AF00237B601948194903F035FB034603
:10091800002B20D01548164903F0EAFC154B154A60
:10092800528B92B242F4807292B25A8312480021DA
:1009380003F0EEF80D48002103F0EAF801F0B8FEE4
:100948000E4B1A683B1D104600211A46002301F081
:10095800C1FA01F0BDFE7B68002B03D0084B4FF0B5
:1009680080521A600837BD4680BD00BF2864024027
:100978000088001000180240A0640240780400209B
:1009880004ED00E080B582B000AF00237B60194819
:10099800194903F0F1FA0346002B20D015481649EF
:1009A80003F0A6FC154B154A528B92B242F48072A2
:1009B80092B25A830F48002103F0AAF81048002188
:1009C80003F0A6F801F074FE0E4B1A683B1D1046A2
:1009D80000211A46002301F07DFA01F079FE7B68B8
:1009E800002B03D0084B4FF080521A600837BD46E1
:1009F80080BD00BFA0640240008020200018024093
:100A0800286402407804002004ED00E080B584B03A
:100A180000AFF860B960FA80BB80FB8814481946BB
:100A280003F002F9BB881348194603F0FDF8114B8F
:100A3800BA68DA600E4BFA68DA600F4B0E4A128B0E
:100A480092B242F4807292B21A830A48012103F0EA
:100A58005FF80748012103F05BF8084B1B6818464C
:100A680000210A22002301F09FFA1037BD4680BDFD
:100A780028640240A0640240001802407804002064
:100A880080B483B000AF0346FB71094B97F9072088
:100A98005209F97901F01F01012000FA01F14032F1
:100AA80043F822100C37BD465DF8047B704700BF41
:100AB80000E100E080B485B000AF78607A68154B3B
:100AC800A3FB02135B0C013BFB60134B4FF08072DE
:100AD800DA60124B20221A60114B01221A60114B66
:100AE80002221A60104BFA681A60104B4FF4807299
:100AF8001A600F4B0F4A1A600F4B104A1A60104BBE
:100B080001221A600F4B01221A601437BD465DF8A6
:100B1800047B7047C5B3A291F0ED00E0042004E027
:100B2800040004E0F00004E0100004E0040304E022
:100B3800B00F00E055CEACC5800E00E00500010006
:100B4800000E00E0400E00E080B584B004AF00F075
:100B580037F9174B1B681846FFF7ACFF154802F02A
:100B680069F900F059F80123009300230193002349
:100B7800029300230393104810494FF4A062002306
:100B880000F014FA0346012B05D00D4802F052F983
:100B98004FF0FF3308E00B4802F04CF900F0E2FA9E
:100BA800094802F047F9FEE71846BD4680BD00BF78
:100BB8000000002018580008D50B00082458000829
:100BC8002C5800084C5800087058000880B58CB0A4
:100BD80000AF78600023FB620023FB6209E0FB6A38
:100BE800DAB207F10801FB6A0B441A70FB6A013399
:100BF800FB62FB6A1C2BF2DD0D23BB62BB6A9BB256
:100C080007F10802002011460022FFF7FFFE4FF40B
:100C18007A7000F07FFAF1E780B500AF00F09CF839
:100C28004FF4407002F0C0FBFFF76EFBFFF73CFD8E
:100C380080BD00BF80B500AF064B1B685A1C054B32
:100C48001A601C20FFF71CFF024B1B685A1E014B41
:100C58001A6080BD7C04002080B400AF0B4B1B6879
:100C68005A1C0A4B1A60094B1A68094B1B689A42AE
:100C780003D9064B1A68064B1A60044B1B685A1EA8
:100C8800024B1A60BD465DF8047B70477C04002067
:100C98008004002080B500AF064B1B685A1C054B2A
:100CA8001A601D20FFF7ECFE024B1B685A1E014B11
:100CB8001A6080BD7C04002080B500AF01F01AFDE9
:100CC800FEE700BF80B400AFBD465DF8047B704707
:100CD80080B582B000AF7860396001F00BFDFEE7A7
:100CE80080B483B000AF786039600C37BD465DF8DA
:100CF800047B7047002100F004B8104B5B58435048
:100D080004310F480F4B42189A42FFF4F6AF0E4ACF
:100D180000F003B8002342F8043B0C4B9A42FFF45E
:100D2800F9AF0B48016841F47001016000F014F854
:100D380004F04CFCFFF708FF70470000D05A000889
:100D48000000002058040020580400209841012089
:100D580088ED00E0FFF7FEBF80B500AF154B154AE0
:100D6800D2F8882042F47002C3F88820124B124A45
:100D7800126842F001021A600F4B00229A600E4A74
:100D88000D4B1B6823F0847323F4803313600A4BE4
:100D98000A4A5A60084B084A126822F480221A60EC
:100DA800054B0022DA6000F087F8024B4FF0006232
:100DB8009A6080BD00ED00E0003802401030002449
:100DC80080B487B000AF00233B6100237B6102231E
:100DD800FB600023BB6002237B60324B9B6803F0FF
:100DE8000C033B613B69042B07D0082B09D0002B6F
:100DF8003FD12D4B2D4A1A603FE02B4B2C4A1A60ED
:100E08003BE0284B5B6803F480039B0DBB60254BDC
:100E18005B6803F03F037B60BB68002B0DD0244A5E
:100E28007B68B2FBF3F21F4B596847F6C0730B405F
:100E38009B0903FB02F37B610CE01C4A7B68B2FB55
:100E4800F3F2184B596847F6C0730B409B0903FB34
:100E580002F37B61134B5B6803F440331B0C0133D3
:100E68005B00FB607A69FB68B2FBF3F20E4B1A6019
:100E780003E00D4B0D4A1A6000BF0A4B9B6803F054
:100E8800F0031B090B4AD35CDBB23B61064B1A68C3
:100E98003B69DA40044B1A601C37BD465DF8047B99
:100EA800704700BF00380240000000200024F40012
:100EB80040787D010400002080B483B000AF002397
:100EC8007B6000233B60354B344A126842F4803221
:100ED8001A60324B1B6803F400333B607B680133B4
:100EE8007B603B68002B03D17B68B3F5A06FF0D122
:100EF8002A4B1B6803F40033002B02D001233B600C
:100F080001E000233B603B68012B42D1234B234A7D
:100F1800126C42F080521A64214B214A126842F442
:100F280080421A601D4B1D4A92689A601B4B1B4AEF
:100F3800926842F400429A60184B184A926842F448
:100F4800A0529A60154B174A5A60144B134A1268FC
:100F580042F080721A6000BF104B1B6803F00073E8
:100F6800002BF9D0104B40F204621A600B4B0B4A6D
:100F7800926822F003029A60084B084A926842F08D
:100F880002029A6000BF054B9B6803F00C03082B14
:100F9800F9D10C37BD465DF8047B70470038024034
:100FA80000700040194B4007003C024080B58AB0F1
:100FB80002AFF860B9603B601346FB80FB68002B0A
:100FC80002D101F097FBFEE7BB6A042B02D901F0BE
:100FD80091FBFEE7FB881846396B00F029FDB861E4
:100FE800BB69002B72D0BB691A6BFB8803F1804385
:100FF800013B9B0013447B617B6923F007037B6102
:101008007B6903F00703002B02D001F073FBFEE7B6
:10101800FB880093B869B968BA6A7B6B00F012FC68
:101028007869F9683A6801F073FA0246BB691A6090
:10103800FB6A002B02D0FB6ABA691A6001F038FB20
:101048002E4B1B685A1C2D4B1A602D4B1B68002B0E
:1010580009D12B4BBA691A60284B1B68012B0FD199
:1010680000F038FC0CE0274B1B68002B08D1244B00
:101078001B68DA6ABB6A9A4202D8214BBA691A60BD
:10108800214B1B685A1C204B1A601F4B1A68BB69FE
:101098001A64BB69DA6A1D4B1B689A4203D9BB699B
:1010A800DA6A1A4B1A60BB69DA6A13469B00134462
:1010B8009B00174A1A44BB6904331046194601F0CD
:1010C800A1F90123FB6101F003FB02E04FF0FF33BC
:1010D800FB61FB69012B0BD10A4B1B68002B07D066
:1010E800074B1B68DA6ABB6A9A4201D201F0D0FA50
:1010F800FB6918462037BD4680BD00BF5C0500204F
:1011080084040020680500207C0500206405002078
:101118008804002080B584B000AF78600023FB60AD
:101128007B68002B12D000F055F80C4B1A687B68CE
:101138001344BB600A4B1B680433184601F0BEF920
:10114800B86800F03FFC00F053F8F860FB68002B2B
:1011580001D101F09DFA1037BD4680BD6005002021
:101168008404002080B586B004AF002300930023D8
:1011780001930023029300230393124812494FF46A
:1011880080720023FFF712FF78607B68012B02D181
:1011980001F04AFB78607B68012B0AD101F0AAFABA
:1011A8000A4B01221A600A4B00221A6001F00AFA5F
:1011B80005E07B68002B02D101F09CFAFEE70837B6
:1011C800BD4680BD29180008905800086805002011
:1011D8006005002080B400AF044B1B685A1C034B09
:1011E8001A60BD465DF8047B704700BF6C0500209F
:1011F80080B582B000AF00237B60384B1B68002BA2
:1012080002D101F077FAFEE701F052FA334B1B687E
:101218005A1E324B1A60314B1B68002B56D1304B8B
:101228001B68002B52D02FE02E4BDB68DB683B603D
:101238003B681833184601F041F93B6804331846F7
:1012480001F03CF93B68DA6A274B1B689A4203D9DC
:101258003B68DA6A244B1A603B68DA6A13469B00DB
:1012680013449B00214A1A443B680433104619462C
:1012780001F0C8F83B68DA6A1D4B1B68DB6A9A42C2
:1012880002D31C4B01221A60164B1B68002BCBD1D2
:10129800194B1B68002B11D00CE000F041F80346F5
:1012A800002B02D0134B01221A60134B1B685A1EE5
:1012B800114B1A60104B1B68002BEED10D4B1B68AD
:1012C800012B03D101237B6001F0E2F901F000FA60
:1012D8007B6818460837BD4680BD00BF6C050020F6
:1012E8005C0500201C0500206405002088040020FF
:1012F80084040020740500207005002080B582B0A9
:1013080000AF01F0D5F9054B1B687B6001F0E0F9EF
:101318007B6818460837BD4680BD00BF60050020C1
:1013280080B586B000AF00237B615D4B1B68002B46
:1013380040F0A4805B4B1B685A1C5A4B1A60594BEF
:101348001B683B613B69002B2ED1574B1B681B6800
:10135800002B02D001F0CEF9FEE7534B1B68FB606F
:10136800524B1A68504B1A60504BFA681A60504B2F
:101378001B685A1C4E4B1A604B4B1B681B68002B92
:1013880001D1012300E00023002B04D0494B4FF08A
:10139800FF321A6008E0444B1B68DB68DB68BB60FF
:1013A800BB685A68434B1A60424B1B683A699A42B9
:1013B8004FD33D4B1B681B68002B01D1012300E074
:1013C8000023002B04D03B4B4FF0FF321A6040E063
:1013D800354B1B68DB68DB68BB60BB685B687B60A0
:1013E8003A697B689A4203D2324B7A681A6030E0D5
:1013F800BB680433184601F061F8BB689B6A002B90
:1014080004D0BB681833184601F058F8BB68DA6A8C
:10141800294B1B689A4203D9BB68DA6A264B1A60C3
:10142800BB68DA6A13469B0013449B00234A1A449C
:10143800BB6804331046194600F0E4FFBB68DA6A5B
:101448001F4B1B68DB6A9A4202D301237B61B0E71A
:10145800AFE71B4B1B68DA6A184913469B00134415
:101468009B000B441B68012B01D901237B61154BA1
:101478001B68002B09D1FFF7DDFB06E0114B1B6849
:101488005A1C104B1A60FFF7D5FB0F4B1B68002B3B
:1014980001D001237B617B6918461837BD4680BDA2
:1014A8006C050020600500201405002018050020A8
:1014B800780500201400002064050020880400201E
:1014C80084040020700500207405002080B582B0D7
:1014D80000AF354B1B68002B03D0344B01221A6038
:1014E8005EE0324B00221A60314B1B681A68304BA1
:1014F8001B681B6B9A4208D82D4B1A682C4B1B682B
:10150800343310461946FFF7E3FB294B1B681B6B66
:1015180018462849142204F081F80346002B09D004
:10152800234B1A68224B1B68343310461946FFF7C1
:10153800CFFB0CE00BE0204B1B68002B02D101F025
:10154800D9F8FEE71C4B1B685A1E1B4B1A601A4B36
:101558001A681A4913469B0013449B000B441B68E6
:10156800002BE8D0144B1A6813469B0013449B00C9
:10157800124A13447B607B685B685A687B685A60D0
:101588007B685A687B6808339A4204D17B685B6839
:101598005A687B685A607B685B68DA68044B1A6033
:1015A8000837BD4680BD00BF6C05002074050020CB
:1015B80084040020905A0008640500208804002054
:1015C80080B584B000AF786039607B68002B02D1A9
:1015D80001F090F8FEE7124B1B681833786819463B
:1015E80000F034FF0E4B1B680433184600F066FF0A
:1015F8003B68B3F1FF3F07D1094B1B680433094827
:10160800194600F0FFFE07E0074B1A683B681344D1
:10161800FB60F86800F0D6F91037BD4680BD00BF02
:1016280084040020480500206005002080B584B0AF
:1016380000AF786039607B68002B02D101F05AF85E
:10164800FEE70C4B1B6818337868194600F0DAFE81
:10165800084B1B680433184600F030FF064B1A6825
:101668003B681344FB60F86800F0ACF91037BD46DE
:1016780080BD00BF840400206005002080B584B0D0
:1016880000AF78607B68DB68DB68BB60BB68002BF9
:1016980002D101F02FF8FEE7BB681833184600F0B6
:1016A8000DFF1E4B1B68002B1DD1BB680433184669
:1016B80000F004FFBB68DA6A194B1B689A4203D929
:1016C800BB68DA6A164B1A60BB68DA6A13469B0075
:1016D80013449B00134A1A44BB6804331046194646
:1016E80000F090FE05E0BB6818330F48194600F07B
:1016F80089FEBB68DA6A0D4B1B68DB6A9A4205D320
:101708000123FB600A4B01221A6001E00023FB6001
:10171800FB6818461037BD4680BD00BF6C05002029
:1017280064050020880400201C0500208404002093
:101738007405002080B582B000AF78607B68002B0C
:1017480002D100F0D7FFFEE7054B1A687B681A60E4
:10175800044B1A687B685A600837BD4680BD00BFD5
:10176800780500206005002080B584B000AF78605F
:1017780039607B68002B02D100F0BCFFFEE73B68B4
:10178800002B02D100F0B6FFFEE700F091FF1C4BE2
:101798001B68BB603B681B68B3F1FF3F02D10023A5
:1017A800FB6026E07B681A68164B1B689A4207D0D4
:1017B8007B685A68BB689A4202D80123FB6018E02C
:1017C8007B685B68BA68D21A3B681B689A420ED27B
:1017D8003B681A687B685968BB68CB1A1A443B682F
:1017E8001A607868FFF7A6FF0023FB6001E0012379
:1017F800FB6000F06DFFFB6818461037BD4680BDE2
:10180800600500207805002080B400AF034B01225A
:101818001A60BD465DF8047B704700BF7405002060
:1018280080B582B000AF786000F092F8044B1B6876
:10183800012B01D900F02CFFFFF744FAF4E700BFB1
:101848008804002080B586B000AFF860B9607A607F
:101858003B6000237B6112E0BA687B6913441A7805
:10186800F9687B690B4430331A71BA687B69134491
:101878001B78002B00D105E07B6901337B617B6914
:10188800092BE9D9FB68002283F83D207B68042BEB
:1018980001D904237B60FB687A68DA62FB687A689E
:1018A8009A64FB680433184600F0A0FDFB681833FF
:1018B800184600F09BFDFB68FA681A617B68C3F163
:1018C8000502FB689A61FB68FA685A621837BD46D8
:1018D80080BD00BF80B582B000AF00237B600CE004
:1018E8007A6813469B0013449B00114A1344184618
:1018F80000F05CFD7B6801337B607B68042BEFD9CB
:101908000C4800F053FD0C4800F050FD0B4800F067
:101918004DFD0B4800F04AFD0A4800F047FD0A4B10
:10192800044A1A60094B044A1A600837BD4680BD4C
:1019380088040020EC040020000500201C0500207D
:101948003005002048050020140500201805002057
:1019580080B582B000AF28E0FFF73CFC164B1B684F
:10196800002B14BF00230123DBB27B60FFF740FC90
:101978007B68002B19D100F09BFE0F4BDB68DB68FE
:101988003B603B680433184600F098FD0B4B1B681E
:101998005A1E0A4B1A600A4B1B685A1E084B1A60DB
:1019A80000F096FE386800F075F8054B1B68002BB0
:1019B800D2D10837BD4680BD300500205C05002027
:1019C8004405002080B582B000AF7860134B1B68D7
:1019D8007A685A60124B1B687A689A4209D2114B8E
:1019E8001A680E4B1B6804331046194600F02EFD8A
:1019F80010E00D4B1A68094B1B6804331046194652
:101A080000F024FD094B1B687A689A4202D2074B02
:101A18007A681A600837BD4680BD00BF840400207C
:101A2800600500201805002014050020140000207F
:101A380080B584B000AF03463960FB804C2001F0CC
:101A480037FBF860FB68002B1FD03B68002B06D1E2
:101A5800FB889B00184601F02BFB034600E03B681F
:101A6800FA681363FB681B6B002B05D1F86801F05B
:101A7800ABFB0023FB6008E0FB681A6BFB889B004C
:101A88001046A5211A4603F0FDFDFB6818461037DD
:101A9800BD4680BD80B582B000AF78607B681B6BA7
:101AA800184601F091FB786801F08EFB0837BD46B7
:101AB80080BD00BF80B483B000AF054B1B687B605E
:101AC8007B6818460C37BD465DF8047B704700BF3D
:101AD8008404002080B483B000AF0B4B1B68002B3C
:101AE80002D100237B6008E0084B1B68002B02D161
:101AF80001237B6001E002237B607B6818460C377A
:101B0800BD465DF8047B7047680500206C05002021
:101B180080B584B000AF78607B68FB607B68002B81
:101B280046D0FB68DA6A244B1B68DB6A9A423FD2CC
:101B3800214B1B68DB6AC3F10502FB689A61FB68ED
:101B48005969FB68DA6A13469B0013449B001B4AD9
:101B58001344994201D1012300E00023002B22D035
:101B6800FB680433184600F0A9FC134B1B68DA6ABB
:101B7800FB68DA62FB68DA6A114B1B689A4203D980
:101B8800FB68DA6A0E4B1A60FB68DA6A13469B0038
:101B980013449B00094A1A44FB680433104619464B
:101BA80000F030FC04E0044B1B68DA6AFB68DA6278
:101BB8001037BD4680BD00BF840400208804002083
:101BC8006405002080B584B000AF78607B68FB6056
:101BD8007B68002B2CD0FB68DA6AFB689B6C9A4206
:101BE80026D0FB680433184600F068FCFB689A6C42
:101BF800FB68DA62FB68DB6AC3F10502FB689A617D
:101C0800FB68DA6A0C4B1B689A4203D9FB68DA6AEC
:101C1800094B1A60FB68DA6A13469B0013449B0061
:101C2800064A1A44FB6804331046194600F0EAFBDA
:101C38001037BD4680BD00BF640500208804002021
:101C480080B584B000AF786039607B68FB60FB6862
:101C5800002B02D100F04EFDFEE700F029FDFB68E5
:101C68001A68FB68DB6BF968096C01FB03F31A441B
:101C7800FB685A60FB6800229A63FB681A68FB6875
:101C88009A60FB681A68FB68DB6B013BF968096CB2
:101C980001FB03F31A44FB68DA60FB684FF0FF327C
:101CA8005A64FB684FF0FF329A643B68002B0ED1F0
:101CB800FB681B69002B14D0FB6810331846FFF72C
:101CC800DDFC0346012B0CD100F0E2FC09E0FB68C7
:101CD8001033184600F06AFBFB682433184600F0FE
:101CE80065FB00F0F5FC012318461037BD4680BDA2
:101CF80080B588B000AFF860B9601346FB71002367
:101D0800FB61FB68002B2AD0502001F0D1F9B861A3
:101D1800BB69002B23D0FB68BA6802FB03F30133CD
:101D28007B61786901F0C4F90246BB691A60BB6936
:101D38001B68002B10D0BB69FA68DA63BB69BA6804
:101D48001A64B8690121FFF77BFFBB69FA7983F848
:101D58004D20BB69FB6102E0B86901F035FAFB6907
:101D6800002B02D100F0C6FCFEE7FB6918462037BD
:101D7800BD4680BD80B588B000AFF860B9607A60B4
:101D88003B600023FB61FB68BB61BB69002B02D190
:101D980000F0B0FCFEE7BB68002B03D1BB691B6CED
:101DA800002B01D1012300E00023002B02D100F019
:101DB800A1FCFEE73B68022B03D1BB69DB6B012B5F
:101DC80001D1012300E00023002B02D100F092FC96
:101DD800FEE700F06DFCBB699A6BBB69DB6B9A424E
:101DE80002D33B68022B16D1B869B9683A6800F08B
:101DF800A9F9BB695B6A002B09D0BB692433184673
:101E0800FFF73CFC0346012B01D100F041FC00F038
:101E18005FFC012359E07B68002B03D100F058FCDC
:101E2800002352E0FB69002B06D107F11003184686
:101E3800FFF780FC0123FB6100F04AFCFFF7CAF9B9
:101E480000F036FCBB695B6CB3F1FF3F02D1BB69A4
:101E580000225A64BB699B6CB3F1FF3F02D1BB6996
:101E680000229A6400F034FC07F110023B1D104672
:101E78001946FFF779FC0346002B1ED1B86900F01C
:101E880051FA0346002B12D0BB6903F110027B689C
:101E980010461946FFF794FBB86900F0E1F9FFF71F
:101EA800A7F90346002B0FD100F0F2FB0CE0B8694C
:101EB80000F0D6F9FFF79CF98BE7B86900F0D0F984
:101EC800FFF796F9002300E083E718462037BD4660
:101ED80080BD00BF80B588B000AFF860B9607A6097
:101EE8003B60FB68BB61BB69002B02D100F002FCC0
:101EF800FEE7BB68002B03D1BB691B6C002B01D12B
:101F0800012300E00023002B02D100F0F3FBFEE7E1
:101F18003B68022B03D1BB69DB6B012B01D1012389
:101F280000E00023002B02D100F0E4FBFEE700F004
:101F38004FFC00F0DFFB7861BB699A6BBB69DB6B18
:101F48009A4202D33B68022B24D1B869B9683A682F
:101F580000F0F8F8BB699B6CB3F1FF3F12D1BB6985
:101F68005B6A002B13D0BB6924331846FFF786FB46
:101F78000346002B0BD07B68002B08D07B6801221E
:101F88001A6004E0BB699B6C5A1CBB699A64012304
:101F9800FB6101E00023FB61786900F0B5FBFB6998
:101FA80018462037BD4680BD80B58AB000AFF860BE
:101FB800B9607A603B6000237B62FB683B623B6AE6
:101FC800002B02D100F096FBFEE7BB68002B03D183
:101FD8003B6A1B6C002B01D1012300E00023002B7E
:101FE80002D100F087FBFEE700F062FB3B6A9B6BC7
:101FF800002B3BD03B6ADB68FB61386AB96800F0AC
:1020080009F93B68002B1CD13B6A9B6B5A1E3B6A43
:102018009A633B6A1B68002B04D1FFF74BFD02460D
:102028003B6A5A603B6A1B69002B1BD03B6A103322
:102038001846FFF723FB0346012B13D100F028FBBA
:1020480010E03B6AFA69DA603B6A5B6A002B09D0E8
:102058003B6A24331846FFF711FB0346002B01D0D7
:1020680000F016FB00F034FB012366E07B68002BD0
:1020780003D100F02DFB00235FE07B6A002B06D123
:1020880007F114031846FFF755FB01237B6200F0A4
:102098001FFBFFF79FF800F00BFB3B6A5B6CB3F18B
:1020A800FF3F02D13B6A00225A643B6A9B6CB3F142
:1020B800FF3F02D13B6A00229A6400F009FB07F156
:1020C80014023B1D10461946FFF74EFB0346002B32
:1020D8002BD1386A00F010F90346002B1FD03B6A59
:1020E8001B68002B08D100F0E3FA3B6A5B681846CE
:1020F800FFF70EFD00F0ECFA3B6A03F124027B685F
:1021080010461946FFF75CFA386A00F0A9F8FFF79D
:102118006FF80346002B0FD100F0BAFA0CE0386ACA
:1021280000F09EF8FFF764F85EE7386A00F098F868
:10213800FFF75EF8002300E056E718462837BD464B
:1021480080BD00BF80B584B000AFF860B9607A6028
:10215800FB681B6C002B0CD1FB681B68002B51D152
:10216800FB685B681846FFF72DFDFB6800225A6084
:1021780048E07B68002B1AD1FB689A68FB681B6CE7
:102188001046B9681A46FEF725F8FB689A68FB6896
:102198001B6C1A44FB689A60FB689A68FB685B686A
:1021A8009A422FD3FB681A68FB689A602AE0FB689A
:1021B800DA68FB681B6C1046B9681A46FEF70AF81D
:1021C800FB68DA68FB681B6C5B421A44FB68DA60E0
:1021D800FB68DA68FB681B689A4207D2FB685A6892
:1021E800FB681B6C5B421A44FB68DA607B68022B55
:1021F80008D1FB689B6B002B04D0FB689B6B5A1EB5
:10220800FB689A63FB689B6B5A1CFB689A631037E0
:10221800BD4680BD80B582B000AF786039607B680C
:102228001B68002B19D07B68DA687B681B6C1A4422
:102238007B68DA607B68DA687B685B689A4203D3FC
:102248007B681A687B68DA607B68DA687B681B6C75
:10225800386811461A46FDF7BDFF0837BD4680BDF0
:1022680080B582B000AF786000F022FA14E07B6895
:102278005B6A002B0AD07B6824331846FFF7FEF907
:102288000346002B03D0FFF7BFFA00E008E07B68A5
:102298009B6C5A1E7B689A647B689B6C002BE6DCFF
:1022A8007B684FF0FF329A6400F012FA00F000FAEF
:1022B80014E07B681B69002B0FD07B68103318462D
:1022C800FFF7DCF90346002B01D0FFF79DFA7B6886
:1022D8005B6C5A1E7B685A6400E003E07B685B6CA9
:1022E800002BE6DC7B684FF0FF325A6400F0F0F90F
:1022F8000837BD4680BD00BF80B584B000AF7860A8
:1023080000F0D6F97B689B6B002B02D10123FB60A0
:1023180001E00023FB6000F0DBF9FB68184610378A
:10232800BD4680BD80B584B000AF786000F0C0F9CC
:102338007B689A6B7B68DB6B9A4202D10123FB6056
:1023480001E00023FB6000F0C3F9FB681846103772
:10235800BD4680BD80B584B000AF786039607B68C9
:10236800FB6000F0A5F9FB685B6CB3F1FF3F02D19D
:10237800FB6800225A64FB689B6CB3F1FF3F02D1F3
:10238800FB6800229A6400F0A3F9FB689B6B002BA2
:1023980005D1FB68243318463968FFF747F9F86810
:1023A800FFF75EFF1037BD4680BD00BF80B483B025
:1023B80000AF78607B6803F108027B685A607B682D
:1023C8004FF0FF329A607B6803F108027B68DA609D
:1023D8007B6803F108027B681A617B6800221A6037
:1023E8000C37BD465DF8047B704700BF80B483B0EE
:1023F80000AF78607B6800221A610C37BD465DF833
:10240800047B704780B485B000AF786039607B6822
:102418005B68FB603B68FA685A60FB689A683B68CF
:102428009A60FB689B683A685A60FB683A689A60E9
:102438003B687A681A617B681B685A1C7B681A605B
:102448001437BD465DF8047B704700BF80B485B083
:1024580000AF786039603B681B68BB60BB68B3F14C
:10246800FF3F03D17B681B69FB600CE07B68083386
:10247800FB6002E0FB685B68FB60FB685B681A68EE
:10248800BB689A42F6D9FB685A683B685A603B6851
:102498005B683A689A603B68FA689A60FB683A68D1
:1024A8005A603B687A681A617B681B685A1C7B68AB
:1024B8001A601437BD465DF8047B704780B485B058
:1024C80000AF78607B685B687A6892689A607B681E
:1024D8009B687A6852685A607B681B69FB60FB6876
:1024E8005A687B689A4203D17B689A68FB685A608D
:1024F8007B6800221A61FB681B685A1EFB681A6019
:10250800FB681B6818461437BD465DF8047B7047A6
:1025180080B485B000AFF860B9607A60FB68043BAE
:10252800FB60FB684FF080721A60FB68043BFB603D
:10253800BA68FB681A60FB68043BFB600C4AFB68DE
:102548001A60FB68143BFB607A68FB681A60FB68DA
:10255800043BFB60FB686FF002021A60FB68203BDB
:10256800FB60FB6818461437BD465DF8047B70476E
:102578007D25000880B500AF054B1B68B3F1FF3F10
:1025880002D000F0B7F8FEE700F0B4F8FEE700BFAD
:1025980018000020054B19680868B0E8F04F80F370
:1025A80009884FF0000080F31188704784040020E8
:1025B80003480068006880F3088862B600DF00BF3F
:1025C80008ED00E080B584B000AF2B4BFB60FB68E2
:1025D8001B78DBB2BB60FB68FF221A70FB681B78B4
:1025E800DBB2FB71FB79DBB203F05003DAB2234BA9
:1025F8001A70234B07221A6009E0214B1B685A1EE8
:102608001F4B1A60FB79DBB25B00DBB2FB71FB7915
:10261800DBB2DBB25BB2002BEFDB194B1B681A0293
:10262800174B1A60164B1B6803F4E062144B1A60D0
:10263800BB68DAB2FB681A70124B124A126842F48D
:1026480070021A600F4B0F4A126842F070421A600B
:1026580000F09AF80C4B00221A6000F0AFF80B4B10
:102668000A4A126842F040421A60FFF7A1FF0023AD
:1026780018461037BD4680BD00E400E08005002004
:102688008405002020ED00E01800002034EF00E071
:1026980080B400AF054B4FF080521A60BFF34F8FE4
:1026A800BFF36F8FBD465DF8047B704704ED00E013
:1026B80080B500AF00F01EF8044B1B685A1C034B92
:1026C8001A60BFF34F8FBFF36F8F80BD18000020D3
:1026D80080B500AF064B1B685A1E054B1A60044BA9
:1026E8001B68002B02D1002000F00EF880BD00BF4F
:1026F80018000020EFF311804FF0500181F311888A
:1027080070470023184600BF80F31188704700BF48
:10271800EFF30980114B1A681EF0100F08BF20ED67
:10272800108A20E9F04F10602DE908404FF0500062
:1027380080F31188FEF7CAFE4FF0000080F311887D
:10274800BDE8084019680868B0E8F04F1EF0100F9F
:1027580008BFB0EC108A80F3098870478404002011
:1027680080B500AFFFF7C6FFFEF7DAFD0346002B82
:1027780003D0044B4FF080521A600020FFF7C4FFCB
:1027880080BD00BF04ED00E080B400AF074B084AED
:102798001168084AA2FB01029209013A1A60064B25
:1027A80007221A60BD465DF8047B704714E000E01C
:1027B80000000020D34D621010E000E0DFF80C00AC
:1027C800016841F4700101607047000088ED00E085
:1027D80080B582B000AFEFF305837B607B680F2B79
:1027E8000CD90D4A7B6813441B78FB700B4B1B7884
:1027F800FA789A4202D2FFF77DFFFEE7084B1B6882
:1028080003F4E062074B1B689A4202D9FFF772FF94
:10281800FEE70837BD4680BDF0E300E080050020F4
:102828000CED00E08405002080B586B004AF0023DD
:102838007B6000F045FA0F4B1B68002B0FD002237A
:1028480000930023019300230293002303930A4873
:102858000A494FF400720023FEF7A8FB78607B68F2
:10286800002B02D1FFF746FFFEE77B6818460837C2
:10287800BD4680BDB805002085290008AC58000871
:1028880080B588B000AFF860B9607A603B6000231B
:10289800FB611D4B1B68002B30D0BB683B617B681C
:1028A8007B61FB68BB613B68002B1CD1FFF712F909
:1028B8000346012B0BD1144B1A6807F1100310467D
:1028C8001946BA6A0023FFF755FAF86116E00E4B6D
:1028D8001A6807F110031046194600220023FFF773
:1028E80049FAF8610AE0084B1A6807F11003104624
:1028F80019463A680023FFF7EDFAF861FB691846B4
:102908002037BD4680BD00BFB805002080B586B021
:1029180002AF78603960184B1B68DB68DB68FB60C6
:10292800FB6804331846FFF7C9FDFB68DB69012B18
:102938001BD1FB689A697B681344F86819463A68A2
:102948007B6800F0A9F80346012B0ED10023009301
:10295800F86800217A680023FFF792FFB860BB6827
:10296800002B02D1FFF7C6FEFEE7FB685B6AF8683A
:1029780098471037BD4680BDB005002080B584B0AB
:1029880000AF786007F10803184600F03FF8F860D8
:10299800BB68F868194600F003F800F0BFF8F1E7E3
:1029A80080B584B000AF78603960FEF713FC07F19A
:1029B8000803184600F04EF8F860BB68002B1ED1DB
:1029C8003B68002B0AD17A68FB689A4206D8FEF762
:1029D8000FFC7868F968FFF799FF12E00A4B1A684C
:1029E8007968FB68CB1A10461946FFF7B3FCFEF767
:1029F800FFFB0346002B04D1FFF74AFE01E0FEF778
:102A0800F7FB1037BD4680BDB805002080B485B0FF
:102A180000AF78600E4B1B681B68002B14BF0023A7
:102A28000123DBB21A467B681A607B681B68002B9F
:102A380005D1074B1B68DB681B68FB6001E00023BE
:102A4800FB60FB6818461437BD465DF8047B704789
:102A5800B005002080B584B000AF7860FEF74EFC6A
:102A6800F8600C4B1B68FA689A4208D2094B1B683D
:102A7800184600F0CBF87B6801221A6002E07B68F8
:102A880000221A60034BFA681A60FB681846103770
:102A9800BD4680BDBC05002080B586B000AFF8609B
:102AA800B9607A603B6000237B61FB68BA685A6052
:102AB800FB68FA681A61BA687B689A4212D87A6821
:102AC8003B68D21AFB689B699A4202D301237B6157
:102AD8001BE0104B1A68FB68043310461946FFF7D1
:102AE800B5FC12E07A683B689A4206D2BA683B683D
:102AF8009A4202D301237B6107E0074B1A68FB68FF
:102B0800043310461946FFF7A1FC7B6918461837AD
:102B1800BD4680BDB4050020B005002080B58AB050
:102B280002AF60E03B69FB61FB695B69002B04D085
:102B3800FB6904331846FFF7C1FC3B1D1846FFF735
:102B480089FFB861BB68032B4CD801A252F823F067
:102B5800692B0008ED2B0008BB2B0008E52B0008AB
:102B6800FA68FB699B691A44FB68F8691146BA69F7
:102B7800FFF792FF0346012B1AD1FB695B6AF869DC
:102B88009847FB69DB69012B12D1FA68FB699B69DD
:102B9800134400220092F86900211A460023FFF727
:102BA8006FFE78617B69002B02D1FFF7A3FDFEE77A
:102BB80019E0FA68FB699A61FB699B69002B02D1ED
:102BC800FFF798FDFEE7FB699A69BB691344F8694A
:102BD8001946BA69BB69FFF75FFF04E0F86900F0BE
:102BE800F3FA00E000BF084B1A6807F10803104623
:102BF800194600220023FFF7D7F90346002B91D18D
:102C08002037BD4680BD00BFB805002080B58AB01A
:102C180002AF78603DE0284B1B68DB681B68FB61EE
:102C2800254B1B68DB68DB68BB61BB69043318464E
:102C3800FFF744FCBB695B6AB8699847BB69DB6905
:102C4800012B26D1BB699A69FB6913447B617A69B8
:102C5800FB699A420ED9BB697A695A60BB69BA693D
:102C68001A61154B1A68BB69043310461946FFF7F9
:102C7800EDFB0EE000230093B8690021FA690023F8
:102C8800FFF7FEFD38613B69002B02D1FFF732FDEB
:102C9800FEE7094B1B681B68002BBCD1064B1B6861
:102CA800FB60064B1A68044B1A60044BFA681A60FA
:102CB8002037BD4680BD00BFB0050020B405002008
:102CC80080B500AFFFF7F4FC0D4B1B68002B13D148
:102CD8000C48FFF76BFB0C48FFF768FB0B4B094AE6
:102CE8001A600B4B084A1A600A200C210022FEF7D2
:102CF800FFFF0246024B1A60FFF7EAFC80BD00BFE7
:102D0800B8050020880500209C050020B00500209B
:102D1800B405002080B483B000AF7860134BDB6843
:102D280003F08073002B1AD04FF06043D3F8803E35
:102D380003F00103002B12D04FF06043D3F8003E9C
:102D480003F00103002B0AD000BF4FF060431B685B
:102D5800002BFAD04FF060437A68D2B21A707B68C1
:102D680018460C37BD465DF8047B7047F0ED00E06F
:102D780080B483B000AF0346FB71064B1B68591C37
:102D8800044A1160FA791A700C37BD465DF8047B65
:102D9800704700BFC005002080B582B000AF034671
:102DA800FB71FB79092B07D90A4B1B78002B01D043
:102DB800372302E0572300E03023FA791344DBB2CB
:102DC8001846FFF7D5FF044B01221A700837BD4695
:102DD80080BD00BFD4050020D505002080B584B093
:102DE80000AF78600023FB73104B1A680F4B1A6012
:102DF80008E00E4B1A687B68D21A0C4B1A60FB7BF2
:102E08000133FB73094B1A687B689A42F1D2084B6D
:102E18001B78002B02D1FB7B002B03D0FB7B1846D1
:102E2800FFF7BAFF1037BD4680BD00BFD0050020B0
:102E3800D50500200FB480B584B000AF07F11C039E
:102E48003B600FE1FB7B252B04D0FB7B1846FFF78B
:102E580061FF07E10023FB710023BB71BB695A1CAA
:102E6800BA611B78FB73FB7B302B06D1BB695A1CFC
:102E7800BA611B78FB730123FB71FB7B2F2B1DD9D8
:102E8800FB7B392B1AD80023BB7111E0BB799B005F
:102E9800DAB2BB791344DBB25B00DAB2FB7B1344D2
:102EA800DBB2303BBB71BB695A1CBA611B78FB7340
:102EB800FB7B2F2B02D9FB7B392BE7D9724B734A4B
:102EC8001A60714B1B68BB60714B00221A70FB7B48
:102ED800632B00F08280632B08DC252B00F08C80AC
:102EE800582B49D0002B00F0C78088E0732B7DD089
:102EF800732B02DC642B05D081E0752B02D0782B74
:102F08003AD07CE03B681A1D3A601A68614B1A6037
:102F1800FB7B642B0CD15F4B1B68002B08DA5D4BE5
:102F28001B685B421A465B4B1A602D20FFF720FF97
:102F38005948FFF753FF5948FFF750FF5848FFF724
:102F48004DFF5848FFF74AFF5748FFF747FF42F23F
:102F58001070FFF743FF4FF47A70FFF73FFF6420CC
:102F6800FFF73CFF0A20FFF739FF4A4B1B68DBB22B
:102F78001846FFF711FF43E0FB7B582B14BF0023D3
:102F88000123DBB21A46494B1A703B681A1D3A6096
:102F98001A68404B1A604FF08050FFF71FFF4FF040
:102FA8008070FFF71BFF4FF48010FFF717FF4FF4F7
:102FB8008030FFF713FF4FF48050FFF70FFF4FF4F7
:102FC8008070FFF70BFF1020FFF708FF314B1B68DD
:102FD800DBB21846FFF7E0FE12E03B681A1D3A60C4
:102FE8001B68DBB21846FFF7C3FE09E03B681A1DF1
:102FF8003A601B68BB6003E02520FFF7B9FE00BFFD
:10300800214B1B6800221A701F4BBA681A6002E035
:10301800BB79013BBB711C4B1B68591C1A4A1160D8
:103028001B78002B02D0BB79002BF1D108E0FB798B
:10303800002B01D0302300E020231846FFF76AFE5A
:10304800BB795A1EBA71002BF1D103E0FB7B1846FD
:10305800FFF760FEBB685A1CBA601B78FB73FB7BEA
:10306800002BF3D1BB695A1CBA611B78FB73FB7B3D
:10307800002B7FF4E7AE00E000BF1037BD46BDE887
:10308800804004B0704700BFC0050020C405002080
:10309800D5050020D005002000CA9A3B00E1F505BF
:1030A8008096980040420F00A0860100D4050020B9
:1030B80080B586B000AF78600023FB60FEF78AF821
:1030C8003D4B1B68002B01D100F0C8F83B4B1A6838
:1030D8007B681340002B63D17B68002B0DD008233D
:1030E8007A6813447B607B6803F00703002B04D0E5
:1030F8007B6823F0070308337B607B68002B4FD085
:103108002F4B1B687A689A424AD82E4B3B612D4B4D
:103118001B687B6104E07B693B617B691B687B61A1
:103128007B695A687B689A4203D27B691B68002BCB
:10313800F1D1214B1B687A699A4231D03B691A68F0
:1031480008231344FB607B691A683B691A607B6932
:103158005A687B68D21A08235B009A420FD97A69A9
:103168007B681344BB607B695A687B68D21ABB686A
:103178005A607B697A685A60B86800F0BDF8104BED
:103188001A687B695B68D21A0D4B1A607B695A68AA
:103198000A4B1B681A437B695A607B6900221A60D4
:1031A800FEF726F8FB68002B01D1FDF785FDFB68CB
:1031B80018461837BD4680BDE0310120E4310120B2
:1031C8001C000020D831012080B584B000AF7860A1
:1031D8007B68FB607B68002B38D008235B42FA6869
:1031E8001344FB60FB68BB60BB685A68194B1B68DB
:1031F8001340002B02D1FFF77DFAFEE7BB681B687E
:10320800002B02D0FFF776FAFEE7BB685A68114B2D
:103218001B681340002B19D0BB681B68002B15D105
:10322800BB685A680B4B1B68DB431A40BB685A6083
:10323800FDF7D0FFBB685A68074B1B681A44064B5A
:103248001A60B86800F058F8FDF7D2FF1037BD468D
:1032580080BD00BFE43101201C00002080B584B08F
:1032680000AF1F4B23F00703FB601E4BFA681A6080
:103278001C4B00225A601C4BFA681344BB6008239D
:103288005B42BA681344BB60184BBA681A60174BA4
:103298001B6803F00703002B02D0FFF72BFAFEE7A9
:1032A800124B1B6800225A60104B1B6800221A60E0
:1032B800FB687B600C4A0823D21A7B685A600B4B68
:1032C8001A687B681A600A4B1A680823D21A084BD6
:1032D8001A60084B4FF000421A601037BD4680BD97
:1032E800E0050020D8310120F82B0100E031012051
:1032F8001C000020E431012080B485B000AF786064
:10330800274BFB6002E0FB681B68FB60FB681A68E0
:103318007B689A42F7D3FB68BB60FB685B68BA6856
:103328001A447B689A4208D1FB685A687B685B68D4
:103338001A44FB685A60FB687B607B68BB607B68EB
:103348005B68BA681A44FB681B689A4218D1FB6824
:103358001A68144B1B689A420DD07B685A68FB6840
:103368001B685B681A447B685A60FB681B681A68AC
:103378007B681A6008E00B4B1A687B681A6003E0E8
:10338800FB681A687B681A60FA687B689A4202D000
:10339800FB687A681A601437BD465DF8047B70478D
:1033A800D8310120E031012080B582B000AF7860CB
:1033B8007B68B3F5E06F13D07B68B3F5C06F0FD0AF
:1033C8007B68B3F5A06F0BD07B68B3F5806F07D02F
:1033D8007B68B3F5407F03D006487321FDF780FC76
:1033E800054A7B6843F0BF6343F40033D360083772
:1033F800BD4680BDB458000800ED00E080B584B03B
:1034080000AF78600023FB730023BB730F237B732B
:103418007B68DB78002B07D07B68DB78012B03D037
:1034280030488721FDF75CFC7B685B780F2B03D95C
:103438002C488821FDF754FC7B689B780F2B03D917
:1034480028488921FDF74CFC7B68DB78002B37D0B6
:10345800254BDB68DB4303F4E0631B0AFB73FB7B50
:10346800C3F10403BB737A7BFB7B42FA03F37B73E0
:103478007B685B781A46BB7B02FA03F3FB737B68B5
:103488009A787B7B1340DAB2FB7B1343FB73FB7B9D
:103498001B01FB73154A7B681B781344FA7B83F87E
:1034A8000023124B7A6812785209D2B279680978E7
:1034B80001F01F01012000FA01F143F822100EE08B
:1034C8000A4B7A6812785209D2B27968097801F001
:1034D8001F01012000FA01F1203243F822101037B1
:1034E800BD4680BDB458000800ED00E000E100E0F2
:1034F80080B582B000AF78607A68724B9A423FD04C
:103508007A68714B9A423BD07A68704B9A4237D0AE
:103518007A686F4B9A4233D07A686E4B9A422FD0B2
:103528007A686D4B9A422BD07A686C4B9A4227D0B6
:103538007A686B4B9A4223D07A686A4B9A421FD0BA
:103548007A68694B9A421BD07A68684B9A4217D0BE
:103558007A68674B9A4213D07A68664B9A420FD0C2
:103568007A68654B9A420BD07A68644B9A4207D0C6
:103578007A68634B9A4203D06248BF21FDF7B0FBDB
:103588007B681B6823F001027B681A607B68002255
:103598001A607B6800225A607B6800229A607B6808
:1035A8000022DA607B6800221A617B6821225A6156
:1035B8007A68444B9A4203D1534B3D229A607EE08D
:1035C8007A68414B9A4204D14F4B4FF474629A6027
:1035D80075E07A683D4B9A4204D14B4B4FF4741214
:1035E8009A606CE07A683A4B9A4204D1464B4FF0A5
:1035F80074629A6063E07A68364B9A4203D1424B10
:10360800424ADA605BE07A68334B9A4203D13E4B18
:103618003F4ADA6053E07A68304B9A4203D13A4B1A
:103628003C4ADA604BE07A682D4B9A4204D1364B1B
:103638004FF03D52DA6042E07A682A4B9A4203D151
:10364800354B3D229A603AE07A68274B9A4204D17A
:10365800314B4FF474629A6031E07A68234B9A4296
:1036680004D12D4B4FF474129A6028E07A68204BED
:103678009A4204D1284B4FF074629A601FE07A682E
:103688001C4B9A4203D1244B204ADA6017E07A682F
:10369800194B9A4203D1204B1D4ADA600FE07A6831
:1036A800164B9A4203D11C4B1A4ADA6007E07A6833
:1036B800134B9A4203D1184B4FF03D52DA6008374A
:1036C800BD4680BD10600240286002404060024054
:1036D800586002407060024088600240A06002406A
:1036E800B86002401064024028640240406402400E
:1036F800586402407064024088640240A06402403A
:10370800B8640240FC580008006002403D000020F8
:10371800400F002000003D200064024080B584B0C6
:1037280000AF786039600023FB607A68984B9A4252
:1037380040D07A68974B9A423CD07A68964B9A4226
:1037480038D07A68954B9A4234D07A68944B9A422A
:1037580030D07A68934B9A422CD07A68924B9A422E
:1037680028D07A68914B9A4224D07A68904B9A4232
:1037780020D07A688F4B9A421CD07A688E4B9A4236
:1037880018D07A688D4B9A4214D07A688C4B9A423A
:1037980010D07A688B4B9A420CD07A688A4B9A423E
:1037A80008D07A68894B9A4204D089484FF49E71B0
:1037B800FDF796FA3B681B68002B27D03B681B680F
:1037C800B3F1007F22D03B681B68B3F1806F1DD036
:1037D8003B681B68B3F1C06F18D03B681B68B3F136
:1037E800006F13D03B681B68B3F1206F0ED03B68A5
:1037F8001B68B3F1406F09D03B681B68B3F1606F79
:1038080004D0734840F23D11FDF76AFA3B68DB6863
:10381800002B0CD03B68DB68402B08D03B68DB688A
:10382800802B04D06A484FF49F71FDF759FA3B6822
:103838001B69002B04D03B681B69B3F5803F04D398
:10384800634840F23F11FDF74BFA3B685B69B3F5FB
:10385800007F08D03B685B69002B04D05C484FF4BC
:10386800A071FDF73DFA3B689B69B3F5806F08D0FE
:103878003B689B69002B04D0554840F24111FDF785
:103888002FFA3B68DB69002B0ED03B68DB69B3F588
:10389800006F09D03B68DB69B3F5805F04D04C4802
:1038A8004FF4A171FDF71CFA3B681B6A002B0ED080
:1038B8003B681B6AB3F5005F09D03B681B6AB3F528
:1038C800804F04D0424840F24311FDF709FA3B68A3
:1038D8005B6A002B09D03B685B6AB3F5807F04D034
:1038E8003B484FF4A271FDF7FBF93B689B6A002B3C
:1038F80013D03B689B6AB3F5803F0ED03B689B6A48
:10390800B3F5003F09D03B689B6AB3F5403F04D04C
:103918002F4840F24511FDF7E3F93B68DB6A002BBD
:1039280008D03B68DB6A042B04D029484FF4A37104
:10393800FDF7D6F93B681B6B002B10D03B681B6B5F
:10394800012B0CD03B681B6B022B08D03B681B6B10
:10395800032B04D01E4840F24711FDF7C1F93B681C
:103968005B6B002B36D03B685B6BB3F5000F31D037
:103978003B685B6BB3F1807F2CD03B685B6BB3F12A
:10398800C07F27D012484FF4A471FDF7A9F921E0B0
:1039980010600240286002404060024058600240C7
:1039A8007060024088600240A0600240B860024037
:1039B8001064024028640240406402405864024097
:1039C8007064024088640240A0640240B864024007
:1039D800FC5800083B689B6B002B13D03B689B6B23
:1039E800B3F5001F0ED03B689B6BB3F5800F09D071
:1039F8003B689B6BB3F5C00F04D0284840F24911CF
:103A0800FDF76EF97B681B68FB60FA68244B13406E
:103A1800FB603B681A683B68DB681A433B685B6974
:103A28001A433B689B691A433B68DB691A433B6846
:103A38001B6A1A433B685B6A1A433B689B6A1A43D2
:103A48003B685B6B1A433B689B6B1343FA681343F1
:103A5800FB607B68FA681A607B685B69FB60FB68DF
:103A680023F00703FB603B68DA6A3B681B6B134370
:103A7800FA681343FB607B68FA685A613B681A6905
:103A88007B685A603B685A687B689A603B689A68AA
:103A98007B68DA601037BD4680BD00BFFC5800085F
:103AA8003F801CF080B483B000AF78607B68002250
:103AB8001A607B6800225A607B6800229A607B68E3
:103AC8000022DA607B6800221A617B6800225A6152
:103AD8007B6800229A617B680022DA617B68002299
:103AE8001A627B6800225A627B6800229A627B68AD
:103AF8000022DA627B6800221A637B6800225A631C
:103B08007B6800229A630C37BD465DF8047B7047DA
:103B180080B582B000AF78600B46FB707A68314B95
:103B28009A4240D07A68304B9A423CD07A682F4B00
:103B38009A4238D07A682E4B9A4234D07A682D4B04
:103B48009A4230D07A682C4B9A422CD07A682B4B08
:103B58009A4228D07A682A4B9A4224D07A68294B0C
:103B68009A4220D07A68284B9A421CD07A68274B10
:103B78009A4218D07A68264B9A4214D07A68254B14
:103B88009A4210D07A68244B9A420CD07A68234B18
:103B98009A4208D07A68224B9A4204D0214840F2CF
:103BA800D911FDF79DF8FB78002B07D0FB78012B86
:103BB80004D01C484FF4ED71FDF792F8FB78002B08
:103BC80006D07B681B6843F001027B681A6005E039
:103BD8007B681B6823F001027B681A600837BD46C2
:103BE80080BD00BF10600240286002404060024073
:103BF800586002407060024088600240A060024045
:103C0800B8600240106402402864024040640240E8
:103C1800586402407064024088640240A064024014
:103C2800B8640240FC58000880B582B000AF7860E4
:103C38000B467B807A68254B9A4240D07A68244BA1
:103C48009A423CD07A68234B9A4238D07A68224B01
:103C58009A4234D07A68214B9A4230D07A68204B05
:103C68009A422CD07A681F4B9A4228D07A681E4B09
:103C78009A4224D07A681D4B9A4220D07A681C4B0D
:103C88009A421CD07A681B4B9A4218D07A681A4B11
:103C98009A4214D07A68194B9A4210D07A68184B15
:103CA8009A420CD07A68174B9A4208D07A68164B19
:103CB8009A4204D0154840F27521FDF711F87A8828
:103CC8007B685A600837BD4680BD00BF106002405F
:103CD8002860024040600240586002407060024024
:103CE80088600240A0600240B86002401064024050
:103CF80028640240406402405864024070640240F4
:103D080088640240A0640240B8640240FC5800087D
:103D180080B584B000AF78600023FB737A682A4BC3
:103D28009A4240D07A68294B9A423CD07A68284B0C
:103D38009A4238D07A68274B9A4234D07A68264B10
:103D48009A4230D07A68254B9A422CD07A68244B14
:103D58009A4228D07A68234B9A4224D07A68224B18
:103D68009A4220D07A68214B9A421CD07A68204B1C
:103D78009A4218D07A681F4B9A4214D07A681E4B20
:103D88009A4210D07A681D4B9A420CD07A681C4B24
:103D98009A4208D07A681B4B9A4204D01A4840F2DB
:103DA800A231FCF79DFF7B681B6803F00103002B21
:103DB80002D00123FB7301E00023FB73FB7B184651
:103DC8001037BD4680BD00BF106002402860024029
:103DD80040600240586002407060024088600240C3
:103DE800A0600240B86002401064024028640240AB
:103DF8004064024058640240706402408864024093
:103E0800A0640240B8640240FC58000880B584B041
:103E180000AFF860B9601346FB71FA68454B9A42E7
:103E280040D0FA68444B9A423CD0FA68434B9A42D5
:103E380038D0FA68424B9A4234D0FA68414B9A42D9
:103E480030D0FA68404B9A422CD0FA683F4B9A42DD
:103E580028D0FA683E4B9A4224D0FA683D4B9A42E1
:103E680020D0FA683C4B9A421CD0FA683B4B9A42E5
:103E780018D0FA683A4B9A4214D0FA68394B9A42E9
:103E880010D0FA68384B9A420CD0FA68374B9A42ED
:103E980008D0FA68364B9A4204D0364840F24F416F
:103EA800FCF71EFFBB6823F09E03002B02D1BB6802
:103EB800002B04D12F484FF48A61FCF711FFFB79DE
:103EC800002B07D0FB79012B04D02A4840F251413E
:103ED800FCF706FFBB6803F08003002B0FD0FB79CB
:103EE800002B06D0FB685B6943F08002FB685A61CF
:103EF80005E0FB685B6923F08002FB685A61BB68D8
:103F0800802B14D0FB79002B08D0FB681A68BB689B
:103F180003F01E031A43FB681A6008E0FB681A687E
:103F2800BB6803F01E03DB431A40FB681A601037B6
:103F3800BD4680BD106002402860024040600240DB
:103F4800586002407060024088600240A0600240F1
:103F5800B860024010640240286402404064024095
:103F6800586402407064024088640240A0640240C1
:103F7800B8640240FC58000880B586B000AF78608D
:103F880039600023FB750023FB600023BB607A685F
:103F9800974B9A4240D07A68964B9A423CD07A68BE
:103FA800954B9A4238D07A68944B9A4234D07A68C2
:103FB800934B9A4230D07A68924B9A422CD07A68C6
:103FC800914B9A4228D07A68904B9A4224D07A68CA
:103FD8008F4B9A4220D07A688E4B9A421CD07A68CE
:103FE8008D4B9A4218D07A688C4B9A4214D07A68D2
:103FF8008B4B9A4210D07A688A4B9A420CD07A68D6
:10400800894B9A4208D07A68884B9A4204D08848EB
:1040180040F28741FCF764FE3A68864B9A4200F00A
:10402800A9803A68844B9A4200F0A4803A68834B8E
:104038009A4200F09F803A68814B9A4200F09A8039
:104048003A68804B9A4200F095803A687E4B9A42D3
:1040580000F090803A687D4B9A4200F08B803A6875
:104068007B4B9A4200F086803A687A4B9A4200F07D
:1040780081803A68784B9A427CD03A68774B9A426A
:1040880078D03A68764B9A4274D03A68754B9A421F
:1040980070D03A68744B9A426CD03A68734B9A4223
:1040A80068D03A68724B9A4264D03A68714B9A4227
:1040B80060D03A68704B9A425CD03A686F4B9A422B
:1040C80058D03A686E4B9A4254D03A686D4B9A422F
:1040D80050D03A686C4B9A424CD03A686B4B9A4233
:1040E80048D03A686A4B9A4244D03A68694B9A4237
:1040F80040D03A68684B9A423CD03A68674B9A423B
:1041080038D03A68664B9A4234D03A68654B9A423E
:1041180030D03A68644B9A422CD03A68634B9A4242
:1041280028D03A68624B9A4224D03A68614B9A4246
:1041380020D03A68604B9A421CD03A685F4B9A424A
:1041480018D03A685E4B9A4214D03A685D4B9A424E
:1041580010D03A685C4B9A420CD03A685B4B9A4252
:1041680008D03A685A4B9A4204D031484FF49161CA
:10417800FCF7B6FD7A68574B9A4202D8564B3B611A
:1041880001E0564B3B613B6823F0F02323F0C31357
:10419800002B0AD03B68DB0A03F01E03FB607B6838
:1041A8001A68FB681340BB6004E07B685B6903F036
:1041B8008003BB603B6803F00053002B03D03B69CE
:1041C8005B68FB6002E03B691B68FB60FB6823F0EF
:1041D800F02323F08213FB60FA683B681340002B3E
:1041E8007ED0BB68002B7BD00123FB757AE000BF33
:1041F800106002402860024040600240586002405F
:104208007060024088600240A0600240B8600240CE
:10421800106402402864024040640240586402402E
:104228007064024088640240A0640240B86402409E
:10423800FC580008208000101040001008200010D2
:1042480004100010010000900088001000440010C5
:104258000022001000110010400000900080201083
:1042680000401010002008100010041000000190F9
:1042780000800018004000140020001200100011F7
:1042880000004090208000201040002008200020DE
:1042980004100020010000A0008800200044002035
:1042A8000022002000110020400000A000802020F3
:1042B800004010200020082000100420000001A069
:1042C8000080002800400024002000220010002167
:1042D800000040A00F6402400060024000640240F9
:1042E8000023FB75FB7D18461837BD4680BD00BF0F
:1042F80080B584B000AF786039607A683D4B9A42E7
:1043080040D07A683C4B9A423CD07A683B4B9A4200
:1043180038D07A683A4B9A4234D07A68394B9A4204
:1043280030D07A68384B9A422CD07A68374B9A4208
:1043380028D07A68364B9A4224D07A68354B9A420C
:1043480020D07A68344B9A421CD07A68334B9A4210
:1043580018D07A68324B9A4214D07A68314B9A4214
:1043680010D07A68304B9A420CD07A682F4B9A4218
:1043780008D07A682E4B9A4204D02E4840F2D74192
:10438800FCF7AEFC3B6803F04053B3F1405F0CD040
:104398003B6803F04053002B07D03B68002B04D048
:1043A8003A68254B1340002B04D022484FF49B61F8
:1043B800FCF796FC7A68214B9A4202D8204BFB60A6
:1043C80001E0204BFB603B6803F00053002B07D053
:1043D8003B6823F0F02323F08213FA68D36006E0E9
:1043E8003B6823F0F02323F08213FA6893601037B8
:1043F800BD4680BD10600240286002404060024017
:10440800586002407060024088600240A06002402C
:10441800B8600240106402402864024040640240D0
:10442800586402407064024088640240A0640240FC
:10443800B8640240FC580008820082400F640240C1
:10444800006002400064024080B586B000AF78602A
:10445800396000237B6100233B610023FB607A689D
:104468007A4B9A4223D07A68794B9A421FD07A685D
:10447800784B9A421BD07A68774B9A4217D07A6861
:10448800764B9A4213D07A68754B9A420FD07A6865
:10449800744B9A420BD07A68734B9A4207D07A6869
:1044A800724B9A4203D07248BB21FCF719FC3B6857
:1044B8001B68002B03D16E48BC21FCF711FC3B683C
:1044C8001B79002B0FD03B681B79012B0BD03B6865
:1044D8001B79022B07D03B681B79032B03D0644858
:1044E800BD21FCF7FDFB3B68DB79002B0BD03B685B
:1044F800DB79012B07D03B68DB79022B03D05C48C2
:10450800BE21FCF7EDFB00237B6197E07B6901226C
:1045180002FA03F33B613B681A683B691340FB608E
:10452800FA683B699A4240F086807B681A687B6922
:104538005B00032101FA03F3DB431A407B681A602E
:104548007B681A683B681B7919467B695B0001FA2E
:1045580003F31A437B681A603B681B79012B03D06D
:104568003B681B79022B4ED13B685B79002B0FD03F
:104578003B685B79012B0BD03B685B79022B07D03A
:104588003B685B79032B03D03948D021FCF7A8FBA3
:104598007B689A687B695B00032101FA03F3DB43BC
:1045A8001A407B689A607B689A683B685B79194611
:1045B8007B695B0001FA03F31A437B689A603B68E6
:1045C8009B79002B07D03B689B79012B03D02848A7
:1045D800D721FCF785FB7B685A687B699BB2012170
:1045E80001FA03F3DB431A407B685A607B685A6818
:1045F8003B689B7919467B699BB201FA03F39BB22E
:104608001A437B685A607B68DA687B699BB25B00F7
:10461800032101FA03F3DB431A407B68DA607B6805
:10462800DA683B68DB7919467B695B0001FA03F3BA
:104638001A437B68DA607B6901337B617B690F2BE6
:104648007FF664AF1837BD4680BD00BF000002404A
:104658000004024000080240000C02400010024022
:104668000014024000180240001C024000200240D2
:104678004C59000880B584B000AF786013460A46EC
:104688007A807B700023FB600023BB607A68834BD1
:104698009A4224D07A68824B9A4220D07A68814B19
:1046A8009A421CD07A68804B9A4218D07A687F4B1D
:1046B8009A4214D07A687E4B9A4210D07A687D4B21
:1046C8009A420CD07A687C4B9A4208D07A687B4B25
:1046D8009A4204D07A4840F21721FCF701FB7B8804
:1046E800002B31D07B88012B2ED07B88022B2BD03E
:1046F8007B88032B28D07B88042B25D07B88052B2F
:1047080022D07B88062B1FD07B88072B1CD07B8868
:10471800082B19D07B88092B16D07B880A2B13D03D
:104728007B880B2B10D07B880C2B0DD07B880D2B16
:104738000AD07B880E2B07D07B880F2B04D06048CB
:104748004FF40671FCF7CCFA7B78002B6DD07B78A0
:10475800092B6AD07B78002B67D07B78002B64D03C
:104768007B78002B61D07B78002B5ED07B78012B87
:104778005BD07B78012B58D07B78022B55D07B7887
:10478800022B52D07B78022B4FD07B78032B4CD056
:104798007B78042B49D07B78042B46D07B78042B7C
:1047A80043D07B78052B40D07B78052B3DD07B7898
:1047B800092B3AD07B78062B37D07B78092B34D05D
:1047C8007B78072B31D07B78072B2ED07B78072B73
:1047D8002BD07B78082B28D07B78082B25D07B78AA
:1047E800082B22D07B78092B1FD07B78092B1CD073
:1047F8007B780A2B19D07B780A2B16D07B780B2B69
:1048080013D07B780C2B10D07B780C2B0DD07B78B9
:104818000C2B0AD07B780D2B07D07B780F2B04D07C
:10482800274840F21921FCF75BFA7A787B8803F075
:1048380007039B0002FA03F3FB607B88DB089BB24B
:104848001A467B88DB089BB219467B68083153F807
:1048580021107B8803F007039B000F2000FA03F365
:10486800DB4319407B68083243F822107B88DB0859
:104878009BB21A467B68083253F82220FB68134320
:10488800BB607B88DB089BB21A467B680832B96834
:1048980043F822101037BD4680BD00BF000002401B
:1048A8000004024000080240000C024000100240D0
:1048B8000014024000180240001C02400020024080
:1048C8004C59000880B489B000AF78600023BB6100
:1048D80000237B610023FB6102233B610023FB6013
:1048E8000223BB60484B9B6803F00C03BB61BB69A8
:1048F800042B07D0082B09D0002B3FD17B68434AF3
:104908001A603FE07B68424A1A603BE03E4B5B68B6
:1049180003F480039B0DFB603B4B5B6803F03F0394
:10492800BB60FB68002B0DD0394ABB68B2FBF3F2C1
:10493800354B596847F6C0730B409B0903FB02F3DC
:10494800FB610CE0314ABB68B2FBF3F22E4B5968AD
:1049580047F6C0730B409B0903FB02F3FB612A4B2C
:104968005B6803F440331B0C01335B003B61FA695D
:104978003B69B2FBF3F27B681A6003E07B68234A69
:104988001A6000BF204B9B6803F0F003BB61BB6952
:104998001B09BB611F4ABB6913441B78DBB27B61EF
:1049A8007B681A687B69DA407B685A60164B9B689B
:1049B80003F4E053BB61BB699B0ABB61154ABB6941
:1049C80013441B78DBB27B617B685A687B69DA40E9
:1049D8007B689A600C4B9B6803F46043BB61BB69BE
:1049E8005B0BBB610B4ABB6913441B78DBB27B6171
:1049F8007B685A687B69DA407B68DA602437BD4691
:104A08005DF8047B704700BF003802400024F400C2
:104A180040787D012000002080B582B000AF78602A
:104A28000B46FB707A68154B1340002B02D17B684C
:104A3800002B04D112484FF48861FCF751F9FB7838
:104A4800002B07D0FB78012B04D00D4840F24241DF
:104A5800FCF746F9FB78002B06D00A4B094A116B84
:104A68007A680A431A6306E0064B064A116B7A68AD
:104A7800D2430A401A630837BD4680BD00EE8B81D9
:104A88009C5900080038024080B582B000AF7860B9
:104A98000B46FB707A68154B1340002B02D17B68DC
:104AA800002B04D1124840F2D541FCF719F9FB78E4
:104AB800002B07D0FB78012B04D00D4840F2D641DB
:104AC800FCF70EF9FB78002B06D00A4B094A516C0B
:104AD8007A680A435A6406E0064B064A516C7A68BB
:104AE800D2430A405A640837BD4680BDCCA0F8FFBF
:104AF8009C5900080038024080B584B000AF786047
:104B080039600023FB817A68704B9A420CD07A682E
:104B18006F4B9A4208D07A686E4B9A4204D06E481E
:104B28004FF48371FCF7DCF83B681B88002B13D02B
:104B38003B681B88B3F5806F0ED03B681B88B3F5C4
:104B4800004F09D03B681B88B3F5404F04D062483A
:104B580040F20911FCF7C4F83B685B88B3F5827F23
:104B680008D03B685B88002B04D05B484FF4857104
:104B7800FCF7B6F83B689B88B3F5006F08D03B6834
:104B88009B88002B04D0544840F20B11FCF7A8F87E
:104B98003B68DB88002B08D03B68DB88022B04D0FD
:104BA8004D484FF48671FCF79BF83B681B89002B36
:104BB80008D03B681B89012B04D0474840F20D11EF
:104BC800FCF78EF83B685B89B3F5007F08D03B683B
:104BD8005B89002B04D040484FF48771FCF780F8BC
:104BE8003B689B89002B20D03B689B89082B1CD0F5
:104BF8003B689B89102B18D03B689B89182B14D0D5
:104C08003B689B89202B10D03B689B89282B0CD0B4
:104C18003B689B89302B08D03B689B89382B04D094
:104C28002D4840F20F11FCF75BF83B68DB89002B3D
:104C380008D03B68DB89802B04D027484FF4887163
:104C4800FCF74EF83B681B8A002B04D1224840F23F
:104C58001111FCF745F87B681B88FB81FB8903F47D
:104C68004153FB813B681A883B685B8813439AB2BF
:104C78003B689B8813439AB23B68DB8813439AB21C
:104C88003B681B8913439AB23B685B8913439AB20A
:104C98003B689B8913439AB23B68DB8913439AB2FA
:104CA800FB891343FB817B68FA891A807B689B8B9D
:104CB8009BB223F400639AB27B689A833B681A8A92
:104CC8007B681A821037BD4680BD00BF00300140A6
:104CD80000380040003C0040EC59000880B582B024
:104CE80000AF78600B46FB707A68194B9A420CD07B
:104CF8007A68184B9A4208D07A68174B9A4204D0BF
:104D0800164840F20121FBF7EBFFFB78002B07D098
:104D1800FB78012B04D0114840F20221FBF7E0FF99
:104D2800FB78002B08D07B681B889BB243F04003BC
:104D38009AB27B681A8007E07B681B889BB223F0D5
:104D480040039AB27B681A800837BD4680BD00BF11
:104D58000030014000380040003C0040EC59000899
:104D680080B582B000AF786013460A467A807B70BF
:104D78007A68254B9A4214D07A68244B9A4210D00C
:104D88007A68234B9A420CD07A68224B9A4208D010
:104D98007B68B3F1402F04D01F4840F2D931FBF7AC
:104DA8009FFF7B78002B07D07B78012B04D01A4813
:104DB80040F2DA31FBF794FF7A884FF6FC73134020
:104DC800002B02D17B88002B04D1134840F2DB3141
:104DD800FBF786FF7B78002B08D07B689B889AB20C
:104DE8007B8813439AB27B689A8009E07B689B882A
:104DF8009AB27B88DB439BB213409AB27B689A8055
:104E08000837BD4680BD00BF003001400038004073
:104E1800003C004000340040EC59000880B584B0E4
:104E280000AF78600B467B800023FB737A68254BC4
:104E38009A4214D07A68244B9A4210D07A68234B4D
:104E48009A420CD07A68224B9A4208D07B68B3F118
:104E5800402F04D01F4840F27341FBF741FF7B8885
:104E6800802B1DD07B88402B1AD07B88202B17D015
:104E78007B88102B14D07B88082B11D07B88042BBF
:104E88000ED07B88022B0BD07B88012B08D07B8827
:104E9800B3F5807F04D00F4840F27441FBF720FF40
:104EA8007B681B899AB27B8813409BB2002B02D087
:104EB8000123FB7301E00023FB73FB7B18461037CB
:104EC800BD4680BD0030014000380040003C004035
:104ED80000340040EC59000880B582B000AF78601B
:104EE8000B467B807A68144B9A4214D07A68134B2D
:104EF8009A4210D07A68124B9A420CD07A68114BB9
:104F08009A4208D07B68B3F1402F04D00E4840F293
:104F18009B41FBF7E5FE7B88102B04D00A4840F242
:104F28009C41FBF7DDFE7B88DB439AB27B681A81E4
:104F38000837BD4680BD00BF003001400038004042
:104F4800003C004000340040EC59000880B58AB0AD
:104F580000AF7860396000237B6200233B62002346
:104F6800FB610023BB617A68974B9A4217D07A6835
:104F7800964B9A4213D07A68954B9A420FD07A682A
:104F8800944B9A420BD07A68934B9A4207D07A682E
:104F9800924B9A4203D09248EB21FBF7A1FE3B6863
:104FA8001B68002B04D03B681A688E4B9A4203D9C1
:104FB8008B48EC21FBF794FE3B689B88002B08D0BC
:104FC8003B689B88B3F5805F03D08548ED21FBF7EC
:104FD80087FE3B68DB88002B12D03B68DB88B3F583
:104FE800805F0DD03B68DB88B3F5005F08D03B6875
:104FF800DB88B3F5405F03D07948EE21FBF770FEFC
:105008003B681B89002B0DD03B681B89B3F5806F6B
:1050180008D03B681B89B3F5C06F03D07048EF21F7
:10502800FBF75EFE3B685B891A464FF6F373134045
:10503800002B03D13B685B89002B03D16848F02122
:10504800FBF74EFE3B689B89002B12D03B689B897F
:10505800B3F5807F0DD03B689B89B3F5007F08D0FE
:105068003B689B89B3F5407F03D05D48F121FBF78E
:1050780037FE3B689B89002B13D07A68524B9A42C3
:105088000FD07A68514B9A420BD07A68504B9A42AB
:1050980007D07A68514B9A4203D05148F621FBF762
:1050A8001FFE7B681B8A9BB27B627B6A23F440539A
:1050B8007B623B68DB887A6A13437B627B6A9AB2BD
:1050C8007B681A827B689B899BB27B627B6A23F42C
:1050D800B05323F00C037B623B689A883B681B89BA
:1050E80013439AB23B685B8913439BB27A6A1343B2
:1050F8007B627B6A9AB27B689A817B689B8A9BB247
:105108007B627B6A23F440737B623B689B897A6A83
:1051180013437B627B6A9AB27B689A8207F1080321
:105128001846FFF7CFFB7A68274B9A4203D07A6874
:105138002A4B9A4202D17B693B6201E03B693B62A0
:105148007B689B899BB29BB21BB2002B0CDA3A6A34
:1051580013469B0013449A001A443B681B685B0083
:10516800B2FBF3F3FB610BE03A6A13469B0013446E
:105178009A001A443B681B689B00B2FBF3F3FB617F
:10518800FA69194BA3FB02135B091B017B627B6A5B
:105198001B09642202FB03F3FA69D31ABB617B681B
:1051A8009B899BB29BB21BB2002B1FDABB69DB0049
:1051B80003F132020C4BA3FB02135B0903F0070354
:1051C8007A6A13437B621EE00010014000440040ED
:1051D80000480040004C00400050004000140140CE
:1051E8003C5A0008E07072001F85EB51BB691B0137
:1051F80003F13202074BA3FB02135B0903F00F0311
:105208007A6A13437B627B6A9AB27B681A81283771
:10521800BD4680BD1F85EB5180B582B000AF786078
:105228000B46FB707A681F4B9A4218D07A681E4B5F
:105238009A4214D07A681D4B9A4210D07A681C4B57
:105248009A420CD07A681B4B9A4208D07A681A4B5B
:105258009A4204D0194840F29B11FBF741FDFB78B4
:10526800002B07D0FB78012B04D014484FF4CE71E3
:10527800FBF736FDFB78002B08D07B689B899BB237
:1052880043F400539AB27B689A8107E07B689B8954
:105298009BB223F400539AB27B689A810837BD46C3
:1052A80080BD00BF0010014000440040004800409D
:1052B800004C004000500040001401403C5A0008D7
:1052C80080B582B000AF786013460A467A807B705A
:1052D8007A68274B9A4218D07A68264B9A4214D09B
:1052E8007A68254B9A4210D07A68244B9A420CD09F
:1052F8007A68234B9A4208D07A68224B9A4204D0A3
:10530800214840F23B41FBF7EBFC7A884FF63F73AC
:105318001340002B02D17B88002B04D11A4840F29D
:105328003C41FBF7DDFC7B78002B07D07B78012B19
:1053380004D0154840F23D41FBF7D2FC7B78002BA6
:1053480008D07B689B8A9AB27B8813439AB27B68A1
:105358009A8209E07B689B8A9AB27B88DB439BB27E
:1053680013409AB27B689A820837BD4680BD00BF59
:10537800001001400044004000480040004C00403C
:1053880000500040001401403C5A000880B586B027
:1053980000AF786013460A467A807B7000233B6131
:1053A8000023FB600023BB6000237B617A684F4BBE
:1053B8009A4218D07A684E4B9A4214D07A684D4B6C
:1053C8009A4210D07A684C4B9A420CD07A684B4B70
:1053D8009A4208D07A684A4B9A4204D0494840F227
:1053E800BD41FBF77DFC7B88282B25D07A8840F2CD
:1053F80027739A4220D07A8840F226639A421BD0BB
:105408007A8840F225539A4216D07A8840F224438B
:105418009A4211D07A8840F646039A420CD07A888C
:1054280040F66A139A4207D07B88602B04D035482F
:1054380040F2BE41FBF754FC7B78002B07D07B7809
:10544800012B04D02F4840F2BF41FBF749FC7A8872
:1054580040F66A139A4214D17A68244B9A4210D0C3
:105468007A68234B9A420CD07A68224B9A4208D029
:105478007A68234B9A4204D0224840F2C441FBF791
:105488002FFC7B687B617B88DBB25B09DBB23B610D
:105498007B8803F01F03FB60FB68012202FA03F319
:1054A800BB603B69012B03D17B690C337B6109E04D
:1054B8003B69022B03D17B6910337B6102E07B6976
:1054C80014337B617B78002B06D07B697A6911687D
:1054D800BA680A431A6006E07B697A691168BA6893
:1054E800D2430A401A601837BD4680BD00100140FB
:1054F8000044004000480040004C0040005000407C
:10550800001401403C5A000880B582B000AF7860B2
:105518000B467B807A68264B9A4218D07A68254BCE
:105528009A4214D07A68244B9A4210D07A68234B56
:105538009A420CD07A68224B9A4208D07A68214B5A
:105548009A4204D0204840F22C51FBF7C9FB7A88D4
:105558004FF69F431340002B02D17B88002B04D1C8
:10556800194840F22D51FBF7BBFB7B8803F400730D
:10557800002B14D07A680E4B9A4210D07A680D4BE3
:105588009A420CD07A680C4B9A4208D07A680D4B34
:105598009A4204D00C4840F23251FBF7A1FB7B88B9
:1055A800DB439AB27B681A800837BD4680BD00BFCE
:1055B800001001400044004000480040004C0040FA
:1055C80000500040001401403C5A000870B50F4ECE
:1055D8000F4D761BB61007D0043D0024013455F852
:1055E800043F9847A642F9D10A4E0B4D761B00F0AE
:1055F80059FAB61008D0043D0024013455F8043F88
:105608009847A642F9D170BD70BD00BFC45A0008C2
:10561800C45A0008CC5A0008C45A0008032A70B4B7
:1056280028D940EA01039B0713D005780C78A542D6
:1056380024D1013A002305E010F8015F11F8014F69
:10564800A5421BD1934203F10103F5D1002070BCA0
:1056580070470C46034625681E68AE422146184628
:1056680004F1040403F1040304D1043A032A18469C
:105678002146F0D8002AD8D11046E8E7281B70BC8C
:10568800704700BFF0B4840743D0541E002A3ED0B0
:10569800CDB2034603E0621E002C38D0144603F84E
:1056A800015B9A07F7D1032C2AD9CDB245EA052523
:1056B8000F2C45EA054515D9A4F110073F0903F158
:1056C800100606EB07161A46156055609560D560FA
:1056D8001032B242F8D104F00F040137032C03EB67
:1056E80007130DD91E462246043A032A46F8045BDE
:1056F800FAD8221F22F003020432134404F00304F0
:105708002CB1C9B21C4403F8011BA342FBD1F0BC65
:10571800704714460346C6E7024B13B1024800F02F
:1057280005B87047000000004157000801460020F6
:105738000246034600F018B838B5094D094C641BF9
:10574800A41018BF05EB840505D0013C55F8043DAD
:105758009847002CF9D1BDE8384000F0A9B900BF3E
:10576800CC5A0008D05A0008F0B5274C2668D6F85D
:10577800484185B00746002C41D065681F2D1EDDC5
:10578800224818B94FF0FF3005B0F0BD4FF4C8708B
:10579800039102920193AFF300800399029A019B4F
:1057A80004460028EED0D6F84851256000206060F5
:1057B8000546C6F84841C4F88801C4F88C013FB9C9
:1057C800AB1C00200135656044F8231005B0F0BD1E
:1057D80004EB85004FF0010CC0F88820D4F88861EC
:1057E8000CFA05F21643022FC4F88861C0F8083194
:1057F800E6D1D4F88C311A43C4F88C21E0E706F5D9
:10580800A674C6F84841B8E7A85A00080000000086
:105818005374617274696E670A000000757361726F
:10582800740000004572726F72206372656174695A
:105838006E67206D6F746F724842207461736B2EAF
:105848000A000000537563637365737366756C6C47
:10585800792063726561746564206D6F746F724836
:1058680042207461736B0A000A0A4572726F7220D3
:1058780077697468207363686564756C6572212143
:10588800202E0A0A0000000049444C450000000090
:105898002573090925630925750925750925750DD8
:1058A8000A000000546D7220537663004170702F17
:1058B80053544D333246342D446973636F766572A1
:1058C800792F4C69627261726965732F53544D3335
:1058D80032463478785F5374645065726970685FD3
:1058E8004472697665722F7372632F6D6973632EC4
:1058F800630000004170702F53544D333246342DED
:10590800446973636F766572792F4C69627261724C
:105918006965732F53544D3332463478785F537426
:10592800645065726970685F4472697665722F7336
:1059380072632F73746D3332663478785F646D6187
:105948002E6300004170702F53544D333246342D6E
:10595800446973636F766572792F4C6962726172FC
:105968006965732F53544D3332463478785F5374D6
:10597800645065726970685F4472697665722F73E6
:1059880072632F73746D3332663478785F67706929
:105998006F2E63004170702F53544D333246342DAF
:1059A800446973636F766572792F4C6962726172AC
:1059B8006965732F53544D3332463478785F537486
:1059C800645065726970685F4472697665722F7396
:1059D80072632F73746D3332663478785F726363E1
:1059E8002E6300004170702F53544D333246342DCE
:1059F800446973636F766572792F4C69627261725C
:105A08006965732F53544D3332463478785F537435
:105A1800645065726970685F4472697665722F7345
:105A280072632F73746D3332663478785F7370697C
:105A38002E6300004170702F53544D333246342D7D
:105A4800446973636F766572792F4C69627261720B
:105A58006965732F53544D3332463478785F5374E5
:105A6800645065726970685F4472697665722F73F5
:105A780072632F73746D3332663478785F7573612F
:105A880072742E6300000000A5A5A5A5A5A5A5A56F
:105A9800A5A5A5A5A5A5A5A5A5A5A5A543000000FF
:105AA80030000020F8B500BFF8BC08BC9E4670471F
:0C5AB800F8B500BFF8BC08BC9E46704763
:085AC40021570008AD010008A4
:045ACC008901000844
